{
    "_format": "hh-sol-artifact-1",
    "contractName": "NFT721",
    "sourceName": "contracts/Nft721.sol",
    "abi": [
        {
            "inputs": [
                {
                    "internalType": "string",
                    "name": "name",
                    "type": "string"
                },
                {
                    "internalType": "string",
                    "name": "symbol",
                    "type": "string"
                },
                {
                    "internalType": "uint256",
                    "name": "maxSupply",
                    "type": "uint256"
                }
            ],
            "stateMutability": "nonpayable",
            "type": "constructor"
        },
        {
            "inputs": [],
            "name": "ERC721EnumerableForbiddenBatchMint",
            "type": "error"
        },
        {
            "inputs": [
                {
                    "internalType": "address",
                    "name": "sender",
                    "type": "address"
                },
                {
                    "internalType": "uint256",
                    "name": "tokenId",
                    "type": "uint256"
                },
                {
                    "internalType": "address",
                    "name": "owner",
                    "type": "address"
                }
            ],
            "name": "ERC721IncorrectOwner",
            "type": "error"
        },
        {
            "inputs": [
                {
                    "internalType": "address",
                    "name": "operator",
                    "type": "address"
                },
                {
                    "internalType": "uint256",
                    "name": "tokenId",
                    "type": "uint256"
                }
            ],
            "name": "ERC721InsufficientApproval",
            "type": "error"
        },
        {
            "inputs": [
                {
                    "internalType": "address",
                    "name": "approver",
                    "type": "address"
                }
            ],
            "name": "ERC721InvalidApprover",
            "type": "error"
        },
        {
            "inputs": [
                {
                    "internalType": "address",
                    "name": "operator",
                    "type": "address"
                }
            ],
            "name": "ERC721InvalidOperator",
            "type": "error"
        },
        {
            "inputs": [
                {
                    "internalType": "address",
                    "name": "owner",
                    "type": "address"
                }
            ],
            "name": "ERC721InvalidOwner",
            "type": "error"
        },
        {
            "inputs": [
                {
                    "internalType": "address",
                    "name": "receiver",
                    "type": "address"
                }
            ],
            "name": "ERC721InvalidReceiver",
            "type": "error"
        },
        {
            "inputs": [
                {
                    "internalType": "address",
                    "name": "sender",
                    "type": "address"
                }
            ],
            "name": "ERC721InvalidSender",
            "type": "error"
        },
        {
            "inputs": [
                {
                    "internalType": "uint256",
                    "name": "tokenId",
                    "type": "uint256"
                }
            ],
            "name": "ERC721NonexistentToken",
            "type": "error"
        },
        {
            "inputs": [
                {
                    "internalType": "address",
                    "name": "owner",
                    "type": "address"
                },
                {
                    "internalType": "uint256",
                    "name": "index",
                    "type": "uint256"
                }
            ],
            "name": "ERC721OutOfBoundsIndex",
            "type": "error"
        },
        {
            "inputs": [
                {
                    "internalType": "address",
                    "name": "owner",
                    "type": "address"
                }
            ],
            "name": "OwnableInvalidOwner",
            "type": "error"
        },
        {
            "inputs": [
                {
                    "internalType": "address",
                    "name": "account",
                    "type": "address"
                }
            ],
            "name": "OwnableUnauthorizedAccount",
            "type": "error"
        },
        {
            "anonymous": false,
            "inputs": [
                {
                    "indexed": true,
                    "internalType": "address",
                    "name": "owner",
                    "type": "address"
                },
                {
                    "indexed": true,
                    "internalType": "address",
                    "name": "approved",
                    "type": "address"
                },
                {
                    "indexed": true,
                    "internalType": "uint256",
                    "name": "tokenId",
                    "type": "uint256"
                }
            ],
            "name": "Approval",
            "type": "event"
        },
        {
            "anonymous": false,
            "inputs": [
                {
                    "indexed": true,
                    "internalType": "address",
                    "name": "owner",
                    "type": "address"
                },
                {
                    "indexed": true,
                    "internalType": "address",
                    "name": "operator",
                    "type": "address"
                },
                {
                    "indexed": false,
                    "internalType": "bool",
                    "name": "approved",
                    "type": "bool"
                }
            ],
            "name": "ApprovalForAll",
            "type": "event"
        },
        {
            "anonymous": false,
            "inputs": [
                {
                    "indexed": false,
                    "internalType": "uint256",
                    "name": "_fromTokenId",
                    "type": "uint256"
                },
                {
                    "indexed": false,
                    "internalType": "uint256",
                    "name": "_toTokenId",
                    "type": "uint256"
                }
            ],
            "name": "BatchMetadataUpdate",
            "type": "event"
        },
        {
            "anonymous": false,
            "inputs": [
                {
                    "indexed": false,
                    "internalType": "uint256",
                    "name": "_tokenId",
                    "type": "uint256"
                }
            ],
            "name": "MetadataUpdate",
            "type": "event"
        },
        {
            "anonymous": false,
            "inputs": [
                {
                    "indexed": true,
                    "internalType": "address",
                    "name": "previousOwner",
                    "type": "address"
                },
                {
                    "indexed": true,
                    "internalType": "address",
                    "name": "newOwner",
                    "type": "address"
                }
            ],
            "name": "OwnershipTransferred",
            "type": "event"
        },
        {
            "anonymous": false,
            "inputs": [
                {
                    "indexed": true,
                    "internalType": "address",
                    "name": "from",
                    "type": "address"
                },
                {
                    "indexed": true,
                    "internalType": "address",
                    "name": "to",
                    "type": "address"
                },
                {
                    "indexed": true,
                    "internalType": "uint256",
                    "name": "tokenId",
                    "type": "uint256"
                }
            ],
            "name": "Transfer",
            "type": "event"
        },
        {
            "inputs": [
                {
                    "internalType": "address",
                    "name": "to",
                    "type": "address"
                },
                {
                    "internalType": "uint256",
                    "name": "tokenId",
                    "type": "uint256"
                }
            ],
            "name": "approve",
            "outputs": [],
            "stateMutability": "nonpayable",
            "type": "function"
        },
        {
            "inputs": [
                {
                    "internalType": "address",
                    "name": "owner",
                    "type": "address"
                }
            ],
            "name": "balanceOf",
            "outputs": [
                {
                    "internalType": "uint256",
                    "name": "",
                    "type": "uint256"
                }
            ],
            "stateMutability": "view",
            "type": "function"
        },
        {
            "inputs": [
                {
                    "internalType": "uint256",
                    "name": "tokenId",
                    "type": "uint256"
                }
            ],
            "name": "burn",
            "outputs": [],
            "stateMutability": "nonpayable",
            "type": "function"
        },
        {
            "inputs": [
                {
                    "internalType": "uint256",
                    "name": "tokenId",
                    "type": "uint256"
                }
            ],
            "name": "getApproved",
            "outputs": [
                {
                    "internalType": "address",
                    "name": "",
                    "type": "address"
                }
            ],
            "stateMutability": "view",
            "type": "function"
        },
        {
            "inputs": [
                {
                    "internalType": "address",
                    "name": "owner",
                    "type": "address"
                },
                {
                    "internalType": "address",
                    "name": "operator",
                    "type": "address"
                }
            ],
            "name": "isApprovedForAll",
            "outputs": [
                {
                    "internalType": "bool",
                    "name": "",
                    "type": "bool"
                }
            ],
            "stateMutability": "view",
            "type": "function"
        },
        {
            "inputs": [],
            "name": "name",
            "outputs": [
                {
                    "internalType": "string",
                    "name": "",
                    "type": "string"
                }
            ],
            "stateMutability": "view",
            "type": "function"
        },
        {
            "inputs": [],
            "name": "owner",
            "outputs": [
                {
                    "internalType": "address",
                    "name": "",
                    "type": "address"
                }
            ],
            "stateMutability": "view",
            "type": "function"
        },
        {
            "inputs": [
                {
                    "internalType": "uint256",
                    "name": "tokenId",
                    "type": "uint256"
                }
            ],
            "name": "ownerOf",
            "outputs": [
                {
                    "internalType": "address",
                    "name": "",
                    "type": "address"
                }
            ],
            "stateMutability": "view",
            "type": "function"
        },
        {
            "inputs": [],
            "name": "renounceOwnership",
            "outputs": [],
            "stateMutability": "nonpayable",
            "type": "function"
        },
        {
            "inputs": [
                {
                    "internalType": "address",
                    "name": "to",
                    "type": "address"
                },
                {
                    "internalType": "string",
                    "name": "uri",
                    "type": "string"
                }
            ],
            "name": "safeMint",
            "outputs": [],
            "stateMutability": "nonpayable",
            "type": "function"
        },
        {
            "inputs": [
                {
                    "internalType": "address",
                    "name": "from",
                    "type": "address"
                },
                {
                    "internalType": "address",
                    "name": "to",
                    "type": "address"
                },
                {
                    "internalType": "uint256",
                    "name": "tokenId",
                    "type": "uint256"
                }
            ],
            "name": "safeTransferFrom",
            "outputs": [],
            "stateMutability": "nonpayable",
            "type": "function"
        },
        {
            "inputs": [
                {
                    "internalType": "address",
                    "name": "from",
                    "type": "address"
                },
                {
                    "internalType": "address",
                    "name": "to",
                    "type": "address"
                },
                {
                    "internalType": "uint256",
                    "name": "tokenId",
                    "type": "uint256"
                },
                {
                    "internalType": "bytes",
                    "name": "data",
                    "type": "bytes"
                }
            ],
            "name": "safeTransferFrom",
            "outputs": [],
            "stateMutability": "nonpayable",
            "type": "function"
        },
        {
            "inputs": [
                {
                    "internalType": "address",
                    "name": "operator",
                    "type": "address"
                },
                {
                    "internalType": "bool",
                    "name": "approved",
                    "type": "bool"
                }
            ],
            "name": "setApprovalForAll",
            "outputs": [],
            "stateMutability": "nonpayable",
            "type": "function"
        },
        {
            "inputs": [
                {
                    "internalType": "bytes4",
                    "name": "interfaceId",
                    "type": "bytes4"
                }
            ],
            "name": "supportsInterface",
            "outputs": [
                {
                    "internalType": "bool",
                    "name": "",
                    "type": "bool"
                }
            ],
            "stateMutability": "view",
            "type": "function"
        },
        {
            "inputs": [],
            "name": "symbol",
            "outputs": [
                {
                    "internalType": "string",
                    "name": "",
                    "type": "string"
                }
            ],
            "stateMutability": "view",
            "type": "function"
        },
        {
            "inputs": [
                {
                    "internalType": "uint256",
                    "name": "index",
                    "type": "uint256"
                }
            ],
            "name": "tokenByIndex",
            "outputs": [
                {
                    "internalType": "uint256",
                    "name": "",
                    "type": "uint256"
                }
            ],
            "stateMutability": "view",
            "type": "function"
        },
        {
            "inputs": [
                {
                    "internalType": "address",
                    "name": "owner",
                    "type": "address"
                },
                {
                    "internalType": "uint256",
                    "name": "index",
                    "type": "uint256"
                }
            ],
            "name": "tokenOfOwnerByIndex",
            "outputs": [
                {
                    "internalType": "uint256",
                    "name": "",
                    "type": "uint256"
                }
            ],
            "stateMutability": "view",
            "type": "function"
        },
        {
            "inputs": [
                {
                    "internalType": "uint256",
                    "name": "tokenId",
                    "type": "uint256"
                }
            ],
            "name": "tokenURI",
            "outputs": [
                {
                    "internalType": "string",
                    "name": "",
                    "type": "string"
                }
            ],
            "stateMutability": "view",
            "type": "function"
        },
        {
            "inputs": [],
            "name": "totalSupply",
            "outputs": [
                {
                    "internalType": "uint256",
                    "name": "",
                    "type": "uint256"
                }
            ],
            "stateMutability": "view",
            "type": "function"
        },
        {
            "inputs": [
                {
                    "internalType": "address",
                    "name": "from",
                    "type": "address"
                },
                {
                    "internalType": "address",
                    "name": "to",
                    "type": "address"
                },
                {
                    "internalType": "uint256",
                    "name": "tokenId",
                    "type": "uint256"
                }
            ],
            "name": "transferFrom",
            "outputs": [],
            "stateMutability": "nonpayable",
            "type": "function"
        },
        {
            "inputs": [
                {
                    "internalType": "address",
                    "name": "newOwner",
                    "type": "address"
                }
            ],
            "name": "transferOwnership",
            "outputs": [],
            "stateMutability": "nonpayable",
            "type": "function"
        }
    ],
    "bytecode": "0x60806040523480156200001157600080fd5b506040516200364538038062003645833981810160405281019062000037919062000393565b33838381600090816200004b91906200066e565b5080600190816200005d91906200066e565b505050600073ffffffffffffffffffffffffffffffffffffffff168173ffffffffffffffffffffffffffffffffffffffff1603620000d55760006040517f1e4fbdf7000000000000000000000000000000000000000000000000000000008152600401620000cc91906200079a565b60405180910390fd5b620000e681620000ff60201b60201c565b506000600c8190555080600d81905550505050620007b7565b6000600b60009054906101000a900473ffffffffffffffffffffffffffffffffffffffff16905081600b60006101000a81548173ffffffffffffffffffffffffffffffffffffffff021916908373ffffffffffffffffffffffffffffffffffffffff1602179055508173ffffffffffffffffffffffffffffffffffffffff168173ffffffffffffffffffffffffffffffffffffffff167f8be0079c531659141344cd1fd0a4f28419497f9722a3daafe3b4186f6b6457e060405160405180910390a35050565b6000604051905090565b600080fd5b600080fd5b600080fd5b600080fd5b6000601f19601f8301169050919050565b7f4e487b7100000000000000000000000000000000000000000000000000000000600052604160045260246000fd5b6200022e82620001e3565b810181811067ffffffffffffffff8211171562000250576200024f620001f4565b5b80604052505050565b600062000265620001c5565b905062000273828262000223565b919050565b600067ffffffffffffffff821115620002965762000295620001f4565b5b620002a182620001e3565b9050602081019050919050565b60005b83811015620002ce578082015181840152602081019050620002b1565b60008484015250505050565b6000620002f1620002eb8462000278565b62000259565b90508281526020810184848401111562000310576200030f620001de565b5b6200031d848285620002ae565b509392505050565b600082601f8301126200033d576200033c620001d9565b5b81516200034f848260208601620002da565b91505092915050565b6000819050919050565b6200036d8162000358565b81146200037957600080fd5b50565b6000815190506200038d8162000362565b92915050565b600080600060608486031215620003af57620003ae620001cf565b5b600084015167ffffffffffffffff811115620003d057620003cf620001d4565b5b620003de8682870162000325565b935050602084015167ffffffffffffffff811115620004025762000401620001d4565b5b620004108682870162000325565b925050604062000423868287016200037c565b9150509250925092565b600081519050919050565b7f4e487b7100000000000000000000000000000000000000000000000000000000600052602260045260246000fd5b600060028204905060018216806200048057607f821691505b60208210810362000496576200049562000438565b5b50919050565b60008190508160005260206000209050919050565b60006020601f8301049050919050565b600082821b905092915050565b600060088302620005007fffffffffffffffffffffffffffffffffffffffffffffffffffffffffffffffff82620004c1565b6200050c8683620004c1565b95508019841693508086168417925050509392505050565b6000819050919050565b60006200054f62000549620005438462000358565b62000524565b62000358565b9050919050565b6000819050919050565b6200056b836200052e565b620005836200057a8262000556565b848454620004ce565b825550505050565b600090565b6200059a6200058b565b620005a781848462000560565b505050565b5b81811015620005cf57620005c360008262000590565b600181019050620005ad565b5050565b601f8211156200061e57620005e8816200049c565b620005f384620004b1565b8101602085101562000603578190505b6200061b6200061285620004b1565b830182620005ac565b50505b505050565b600082821c905092915050565b6000620006436000198460080262000623565b1980831691505092915050565b60006200065e838362000630565b9150826002028217905092915050565b62000679826200042d565b67ffffffffffffffff811115620006955762000694620001f4565b5b620006a1825462000467565b620006ae828285620005d3565b600060209050601f831160018114620006e65760008415620006d1578287015190505b620006dd858262000650565b8655506200074d565b601f198416620006f6866200049c565b60005b828110156200072057848901518255600182019150602085019450602081019050620006f9565b868310156200074057848901516200073c601f89168262000630565b8355505b6001600288020188555050505b505050505050565b600073ffffffffffffffffffffffffffffffffffffffff82169050919050565b6000620007828262000755565b9050919050565b620007948162000775565b82525050565b6000602082019050620007b1600083018462000789565b92915050565b612e7e80620007c76000396000f3fe608060405234801561001057600080fd5b50600436106101375760003560e01c80636352211e116100b8578063a22cb4651161007c578063a22cb4651461034e578063b88d4fde1461036a578063c87b56dd14610386578063d204c45e146103b6578063e985e9c5146103d2578063f2fde38b1461040257610137565b80636352211e146102a857806370a08231146102d8578063715018a6146103085780638da5cb5b1461031257806395d89b411461033057610137565b806323b872dd116100ff57806323b872dd146101f45780632f745c591461021057806342842e0e1461024057806342966c681461025c5780634f6ccce71461027857610137565b806301ffc9a71461013c57806306fdde031461016c578063081812fc1461018a578063095ea7b3146101ba57806318160ddd146101d6575b600080fd5b610156600480360381019061015191906121d8565b61041e565b6040516101639190612220565b60405180910390f35b610174610430565b60405161018191906122cb565b60405180910390f35b6101a4600480360381019061019f9190612323565b6104c2565b6040516101b19190612391565b60405180910390f35b6101d460048036038101906101cf91906123d8565b6104de565b005b6101de6104f4565b6040516101eb9190612427565b60405180910390f35b61020e60048036038101906102099190612442565b610501565b005b61022a600480360381019061022591906123d8565b610603565b6040516102379190612427565b60405180910390f35b61025a60048036038101906102559190612442565b6106ac565b005b61027660048036038101906102719190612323565b6106cc565b005b610292600480360381019061028d9190612323565b6106e3565b60405161029f9190612427565b60405180910390f35b6102c260048036038101906102bd9190612323565b610759565b6040516102cf9190612391565b60405180910390f35b6102f260048036038101906102ed9190612495565b61076b565b6040516102ff9190612427565b60405180910390f35b610310610825565b005b61031a610839565b6040516103279190612391565b60405180910390f35b610338610863565b60405161034591906122cb565b60405180910390f35b610368600480360381019061036391906124ee565b6108f5565b005b610384600480360381019061037f9190612663565b61090b565b005b6103a0600480360381019061039b9190612323565b610928565b6040516103ad91906122cb565b60405180910390f35b6103d060048036038101906103cb9190612787565b61093a565b005b6103ec60048036038101906103e791906127e3565b6109bc565b6040516103f99190612220565b60405180910390f35b61041c60048036038101906104179190612495565b610a50565b005b600061042982610ad6565b9050919050565b60606000805461043f90612852565b80601f016020809104026020016040519081016040528092919081815260200182805461046b90612852565b80156104b85780601f1061048d576101008083540402835291602001916104b8565b820191906000526020600020905b81548152906001019060200180831161049b57829003601f168201915b5050505050905090565b60006104cd82610b37565b506104d782610bbf565b9050919050565b6104f082826104eb610bfc565b610c04565b5050565b6000600880549050905090565b600073ffffffffffffffffffffffffffffffffffffffff168273ffffffffffffffffffffffffffffffffffffffff16036105735760006040517f64a0ae9200000000000000000000000000000000000000000000000000000000815260040161056a9190612391565b60405180910390fd5b60006105878383610582610bfc565b610c16565b90508373ffffffffffffffffffffffffffffffffffffffff168173ffffffffffffffffffffffffffffffffffffffff16146105fd578382826040517f64283d7b0000000000000000000000000000000000000000000000000000000081526004016105f493929190612883565b60405180910390fd5b50505050565b600061060e8361076b565b82106106535782826040517fa57d13dc00000000000000000000000000000000000000000000000000000000815260040161064a9291906128ba565b60405180910390fd5b600660008473ffffffffffffffffffffffffffffffffffffffff1673ffffffffffffffffffffffffffffffffffffffff168152602001908152602001600020600083815260200190815260200160002054905092915050565b6106c78383836040518060200160405280600081525061090b565b505050565b6106df6000826106da610bfc565b610c16565b5050565b60006106ed6104f4565b8210610733576000826040517fa57d13dc00000000000000000000000000000000000000000000000000000000815260040161072a9291906128ba565b60405180910390fd5b60088281548110610747576107466128e3565b5b90600052602060002001549050919050565b600061076482610b37565b9050919050565b60008073ffffffffffffffffffffffffffffffffffffffff168273ffffffffffffffffffffffffffffffffffffffff16036107de5760006040517f89c62b640000000000000000000000000000000000000000000000000000000081526004016107d59190612391565b60405180910390fd5b600360008373ffffffffffffffffffffffffffffffffffffffff1673ffffffffffffffffffffffffffffffffffffffff168152602001908152602001600020549050919050565b61082d610c2c565b6108376000610cb3565b565b6000600b60009054906101000a900473ffffffffffffffffffffffffffffffffffffffff16905090565b60606001805461087290612852565b80601f016020809104026020016040519081016040528092919081815260200182805461089e90612852565b80156108eb5780601f106108c0576101008083540402835291602001916108eb565b820191906000526020600020905b8154815290600101906020018083116108ce57829003601f168201915b5050505050905090565b610907610900610bfc565b8383610d79565b5050565b610916848484610501565b61092284848484610ee8565b50505050565b60606109338261109f565b9050919050565b610942610c2c565b600d54600c5410610988576040517f08c379a000000000000000000000000000000000000000000000000000000000815260040161097f9061295e565b60405180910390fd5b6000600c600081548092919061099d906129ad565b9190505590506109ad83826111b2565b6109b781836111d0565b505050565b6000600560008473ffffffffffffffffffffffffffffffffffffffff1673ffffffffffffffffffffffffffffffffffffffff16815260200190815260200160002060008373ffffffffffffffffffffffffffffffffffffffff1673ffffffffffffffffffffffffffffffffffffffff16815260200190815260200160002060009054906101000a900460ff16905092915050565b610a58610c2c565b600073ffffffffffffffffffffffffffffffffffffffff168173ffffffffffffffffffffffffffffffffffffffff1603610aca5760006040517f1e4fbdf7000000000000000000000000000000000000000000000000000000008152600401610ac19190612391565b60405180910390fd5b610ad381610cb3565b50565b6000634906490660e01b7bffffffffffffffffffffffffffffffffffffffffffffffffffffffff1916827bffffffffffffffffffffffffffffffffffffffffffffffffffffffff19161480610b305750610b2f8261122c565b5b9050919050565b600080610b43836112a6565b9050600073ffffffffffffffffffffffffffffffffffffffff168173ffffffffffffffffffffffffffffffffffffffff1603610bb657826040517f7e273289000000000000000000000000000000000000000000000000000000008152600401610bad9190612427565b60405180910390fd5b80915050919050565b60006004600083815260200190815260200160002060009054906101000a900473ffffffffffffffffffffffffffffffffffffffff169050919050565b600033905090565b610c1183838360016112e3565b505050565b6000610c238484846114a8565b90509392505050565b610c34610bfc565b73ffffffffffffffffffffffffffffffffffffffff16610c52610839565b73ffffffffffffffffffffffffffffffffffffffff1614610cb157610c75610bfc565b6040517f118cdaa7000000000000000000000000000000000000000000000000000000008152600401610ca89190612391565b60405180910390fd5b565b6000600b60009054906101000a900473ffffffffffffffffffffffffffffffffffffffff16905081600b60006101000a81548173ffffffffffffffffffffffffffffffffffffffff021916908373ffffffffffffffffffffffffffffffffffffffff1602179055508173ffffffffffffffffffffffffffffffffffffffff168173ffffffffffffffffffffffffffffffffffffffff167f8be0079c531659141344cd1fd0a4f28419497f9722a3daafe3b4186f6b6457e060405160405180910390a35050565b600073ffffffffffffffffffffffffffffffffffffffff168273ffffffffffffffffffffffffffffffffffffffff1603610dea57816040517f5b08ba18000000000000000000000000000000000000000000000000000000008152600401610de19190612391565b60405180910390fd5b80600560008573ffffffffffffffffffffffffffffffffffffffff1673ffffffffffffffffffffffffffffffffffffffff16815260200190815260200160002060008473ffffffffffffffffffffffffffffffffffffffff1673ffffffffffffffffffffffffffffffffffffffff16815260200190815260200160002060006101000a81548160ff0219169083151502179055508173ffffffffffffffffffffffffffffffffffffffff168373ffffffffffffffffffffffffffffffffffffffff167f17307eab39ab6107e8899845ad3d59bd9653f200f220920489ca2b5937696c3183604051610edb9190612220565b60405180910390a3505050565b60008373ffffffffffffffffffffffffffffffffffffffff163b1115611099578273ffffffffffffffffffffffffffffffffffffffff1663150b7a02610f2c610bfc565b8685856040518563ffffffff1660e01b8152600401610f4e9493929190612a4a565b6020604051808303816000875af1925050508015610f8a57506040513d601f19601f82011682018060405250810190610f879190612aab565b60015b61100e573d8060008114610fba576040519150601f19603f3d011682016040523d82523d6000602084013e610fbf565b606091505b50600081510361100657836040517f64a0ae92000000000000000000000000000000000000000000000000000000008152600401610ffd9190612391565b60405180910390fd5b805181602001fd5b63150b7a0260e01b7bffffffffffffffffffffffffffffffffffffffffffffffffffffffff1916817bffffffffffffffffffffffffffffffffffffffffffffffffffffffff19161461109757836040517f64a0ae9200000000000000000000000000000000000000000000000000000000815260040161108e9190612391565b60405180910390fd5b505b50505050565b60606110aa82610b37565b506000600a600084815260200190815260200160002080546110cb90612852565b80601f01602080910402602001604051908101604052809291908181526020018280546110f790612852565b80156111445780601f1061111957610100808354040283529160200191611144565b820191906000526020600020905b81548152906001019060200180831161112757829003601f168201915b5050505050905060006111556115c5565b9050600081510361116a5781925050506111ad565b60008251111561119f578082604051602001611187929190612b14565b604051602081830303815290604052925050506111ad565b6111a8846115dc565b925050505b919050565b6111cc828260405180602001604052806000815250611645565b5050565b80600a600084815260200190815260200160002090816111f09190612ce4565b507ff8e1a15aba9398e019f0b49df1a4fde98ee17ae345cb5f6b5e2c27f5033e8ce7826040516112209190612427565b60405180910390a15050565b60007f780e9d63000000000000000000000000000000000000000000000000000000007bffffffffffffffffffffffffffffffffffffffffffffffffffffffff1916827bffffffffffffffffffffffffffffffffffffffffffffffffffffffff1916148061129f575061129e82611661565b5b9050919050565b60006002600083815260200190815260200160002060009054906101000a900473ffffffffffffffffffffffffffffffffffffffff169050919050565b808061131c5750600073ffffffffffffffffffffffffffffffffffffffff168273ffffffffffffffffffffffffffffffffffffffff1614155b1561145057600061132c84610b37565b9050600073ffffffffffffffffffffffffffffffffffffffff168373ffffffffffffffffffffffffffffffffffffffff161415801561139757508273ffffffffffffffffffffffffffffffffffffffff168173ffffffffffffffffffffffffffffffffffffffff1614155b80156113aa57506113a881846109bc565b155b156113ec57826040517fa9fbf51f0000000000000000000000000000000000000000000000000000000081526004016113e39190612391565b60405180910390fd5b811561144e57838573ffffffffffffffffffffffffffffffffffffffff168273ffffffffffffffffffffffffffffffffffffffff167f8c5be1e5ebec7d5bd14f71427d1e84f3dd0314c0f7b2291e5b200ac8c7c3b92560405160405180910390a45b505b836004600085815260200190815260200160002060006101000a81548173ffffffffffffffffffffffffffffffffffffffff021916908373ffffffffffffffffffffffffffffffffffffffff16021790555050505050565b6000806114b6858585611743565b9050600073ffffffffffffffffffffffffffffffffffffffff168173ffffffffffffffffffffffffffffffffffffffff16036114fa576114f58461195d565b611539565b8473ffffffffffffffffffffffffffffffffffffffff168173ffffffffffffffffffffffffffffffffffffffff16146115385761153781856119a6565b5b5b600073ffffffffffffffffffffffffffffffffffffffff168573ffffffffffffffffffffffffffffffffffffffff160361157b5761157684611b07565b6115ba565b8473ffffffffffffffffffffffffffffffffffffffff168173ffffffffffffffffffffffffffffffffffffffff16146115b9576115b88585611bd8565b5b5b809150509392505050565b606060405180602001604052806000815250905090565b60606115e782610b37565b5060006115f26115c5565b90506000815111611612576040518060200160405280600081525061163d565b8061161c84611c63565b60405160200161162d929190612b14565b6040516020818303038152906040525b915050919050565b61164f8383611d31565b61165c6000848484610ee8565b505050565b60007f80ac58cd000000000000000000000000000000000000000000000000000000007bffffffffffffffffffffffffffffffffffffffffffffffffffffffff1916827bffffffffffffffffffffffffffffffffffffffffffffffffffffffff1916148061172c57507f5b5e139f000000000000000000000000000000000000000000000000000000007bffffffffffffffffffffffffffffffffffffffffffffffffffffffff1916827bffffffffffffffffffffffffffffffffffffffffffffffffffffffff1916145b8061173c575061173b82611e2a565b5b9050919050565b60008061174f846112a6565b9050600073ffffffffffffffffffffffffffffffffffffffff168373ffffffffffffffffffffffffffffffffffffffff161461179157611790818486611e94565b5b600073ffffffffffffffffffffffffffffffffffffffff168173ffffffffffffffffffffffffffffffffffffffff1614611822576117d36000856000806112e3565b6001600360008373ffffffffffffffffffffffffffffffffffffffff1673ffffffffffffffffffffffffffffffffffffffff168152602001908152602001600020600082825403925050819055505b600073ffffffffffffffffffffffffffffffffffffffff168573ffffffffffffffffffffffffffffffffffffffff16146118a5576001600360008773ffffffffffffffffffffffffffffffffffffffff1673ffffffffffffffffffffffffffffffffffffffff168152602001908152602001600020600082825401925050819055505b846002600086815260200190815260200160002060006101000a81548173ffffffffffffffffffffffffffffffffffffffff021916908373ffffffffffffffffffffffffffffffffffffffff160217905550838573ffffffffffffffffffffffffffffffffffffffff168273ffffffffffffffffffffffffffffffffffffffff167fddf252ad1be2c89b69c2b068fc378daa952ba7f163c4a11628f55a4df523b3ef60405160405180910390a4809150509392505050565b6008805490506009600083815260200190815260200160002081905550600881908060018154018082558091505060019003906000526020600020016000909190919091505550565b60006119b18361076b565b9050600060076000848152602001908152602001600020549050818114611a96576000600660008673ffffffffffffffffffffffffffffffffffffffff1673ffffffffffffffffffffffffffffffffffffffff168152602001908152602001600020600084815260200190815260200160002054905080600660008773ffffffffffffffffffffffffffffffffffffffff1673ffffffffffffffffffffffffffffffffffffffff168152602001908152602001600020600084815260200190815260200160002081905550816007600083815260200190815260200160002081905550505b6007600084815260200190815260200160002060009055600660008573ffffffffffffffffffffffffffffffffffffffff1673ffffffffffffffffffffffffffffffffffffffff16815260200190815260200160002060008381526020019081526020016000206000905550505050565b60006001600880549050611b1b9190612db6565b9050600060096000848152602001908152602001600020549050600060088381548110611b4b57611b4a6128e3565b5b906000526020600020015490508060088381548110611b6d57611b6c6128e3565b5b906000526020600020018190555081600960008381526020019081526020016000208190555060096000858152602001908152602001600020600090556008805480611bbc57611bbb612dea565b5b6001900381819060005260206000200160009055905550505050565b60006001611be58461076b565b611bef9190612db6565b905081600660008573ffffffffffffffffffffffffffffffffffffffff1673ffffffffffffffffffffffffffffffffffffffff168152602001908152602001600020600083815260200190815260200160002081905550806007600084815260200190815260200160002081905550505050565b606060006001611c7284611f58565b01905060008167ffffffffffffffff811115611c9157611c90612538565b5b6040519080825280601f01601f191660200182016040528015611cc35781602001600182028036833780820191505090505b509050600082602001820190505b600115611d26578080600190039150507f3031323334353637383961626364656600000000000000000000000000000000600a86061a8153600a8581611d1a57611d19612e19565b5b04945060008503611cd1575b819350505050919050565b600073ffffffffffffffffffffffffffffffffffffffff168273ffffffffffffffffffffffffffffffffffffffff1603611da35760006040517f64a0ae92000000000000000000000000000000000000000000000000000000008152600401611d9a9190612391565b60405180910390fd5b6000611db183836000610c16565b9050600073ffffffffffffffffffffffffffffffffffffffff168173ffffffffffffffffffffffffffffffffffffffff1614611e255760006040517f73c6ac6e000000000000000000000000000000000000000000000000000000008152600401611e1c9190612391565b60405180910390fd5b505050565b60007f01ffc9a7000000000000000000000000000000000000000000000000000000007bffffffffffffffffffffffffffffffffffffffffffffffffffffffff1916827bffffffffffffffffffffffffffffffffffffffffffffffffffffffff1916149050919050565b611e9f8383836120ab565b611f5357600073ffffffffffffffffffffffffffffffffffffffff168373ffffffffffffffffffffffffffffffffffffffff1603611f1457806040517f7e273289000000000000000000000000000000000000000000000000000000008152600401611f0b9190612427565b60405180910390fd5b81816040517f177e802f000000000000000000000000000000000000000000000000000000008152600401611f4a9291906128ba565b60405180910390fd5b505050565b600080600090507a184f03e93ff9f4daa797ed6e38ed64bf6a1f0100000000000000008310611fb6577a184f03e93ff9f4daa797ed6e38ed64bf6a1f0100000000000000008381611fac57611fab612e19565b5b0492506040810190505b6d04ee2d6d415b85acef81000000008310611ff3576d04ee2d6d415b85acef81000000008381611fe957611fe8612e19565b5b0492506020810190505b662386f26fc10000831061202257662386f26fc10000838161201857612017612e19565b5b0492506010810190505b6305f5e100831061204b576305f5e100838161204157612040612e19565b5b0492506008810190505b612710831061207057612710838161206657612065612e19565b5b0492506004810190505b60648310612093576064838161208957612088612e19565b5b0492506002810190505b600a83106120a2576001810190505b80915050919050565b60008073ffffffffffffffffffffffffffffffffffffffff168373ffffffffffffffffffffffffffffffffffffffff161415801561216357508273ffffffffffffffffffffffffffffffffffffffff168473ffffffffffffffffffffffffffffffffffffffff161480612124575061212384846109bc565b5b8061216257508273ffffffffffffffffffffffffffffffffffffffff1661214a83610bbf565b73ffffffffffffffffffffffffffffffffffffffff16145b5b90509392505050565b6000604051905090565b600080fd5b600080fd5b60007fffffffff0000000000000000000000000000000000000000000000000000000082169050919050565b6121b581612180565b81146121c057600080fd5b50565b6000813590506121d2816121ac565b92915050565b6000602082840312156121ee576121ed612176565b5b60006121fc848285016121c3565b91505092915050565b60008115159050919050565b61221a81612205565b82525050565b60006020820190506122356000830184612211565b92915050565b600081519050919050565b600082825260208201905092915050565b60005b8381101561227557808201518184015260208101905061225a565b60008484015250505050565b6000601f19601f8301169050919050565b600061229d8261223b565b6122a78185612246565b93506122b7818560208601612257565b6122c081612281565b840191505092915050565b600060208201905081810360008301526122e58184612292565b905092915050565b6000819050919050565b612300816122ed565b811461230b57600080fd5b50565b60008135905061231d816122f7565b92915050565b60006020828403121561233957612338612176565b5b60006123478482850161230e565b91505092915050565b600073ffffffffffffffffffffffffffffffffffffffff82169050919050565b600061237b82612350565b9050919050565b61238b81612370565b82525050565b60006020820190506123a66000830184612382565b92915050565b6123b581612370565b81146123c057600080fd5b50565b6000813590506123d2816123ac565b92915050565b600080604083850312156123ef576123ee612176565b5b60006123fd858286016123c3565b925050602061240e8582860161230e565b9150509250929050565b612421816122ed565b82525050565b600060208201905061243c6000830184612418565b92915050565b60008060006060848603121561245b5761245a612176565b5b6000612469868287016123c3565b935050602061247a868287016123c3565b925050604061248b8682870161230e565b9150509250925092565b6000602082840312156124ab576124aa612176565b5b60006124b9848285016123c3565b91505092915050565b6124cb81612205565b81146124d657600080fd5b50565b6000813590506124e8816124c2565b92915050565b6000806040838503121561250557612504612176565b5b6000612513858286016123c3565b9250506020612524858286016124d9565b9150509250929050565b600080fd5b600080fd5b7f4e487b7100000000000000000000000000000000000000000000000000000000600052604160045260246000fd5b61257082612281565b810181811067ffffffffffffffff8211171561258f5761258e612538565b5b80604052505050565b60006125a261216c565b90506125ae8282612567565b919050565b600067ffffffffffffffff8211156125ce576125cd612538565b5b6125d782612281565b9050602081019050919050565b82818337600083830152505050565b6000612606612601846125b3565b612598565b90508281526020810184848401111561262257612621612533565b5b61262d8482856125e4565b509392505050565b600082601f83011261264a5761264961252e565b5b813561265a8482602086016125f3565b91505092915050565b6000806000806080858703121561267d5761267c612176565b5b600061268b878288016123c3565b945050602061269c878288016123c3565b93505060406126ad8782880161230e565b925050606085013567ffffffffffffffff8111156126ce576126cd61217b565b5b6126da87828801612635565b91505092959194509250565b600067ffffffffffffffff82111561270157612700612538565b5b61270a82612281565b9050602081019050919050565b600061272a612725846126e6565b612598565b90508281526020810184848401111561274657612745612533565b5b6127518482856125e4565b509392505050565b600082601f83011261276e5761276d61252e565b5b813561277e848260208601612717565b91505092915050565b6000806040838503121561279e5761279d612176565b5b60006127ac858286016123c3565b925050602083013567ffffffffffffffff8111156127cd576127cc61217b565b5b6127d985828601612759565b9150509250929050565b600080604083850312156127fa576127f9612176565b5b6000612808858286016123c3565b9250506020612819858286016123c3565b9150509250929050565b7f4e487b7100000000000000000000000000000000000000000000000000000000600052602260045260246000fd5b6000600282049050600182168061286a57607f821691505b60208210810361287d5761287c612823565b5b50919050565b60006060820190506128986000830186612382565b6128a56020830185612418565b6128b26040830184612382565b949350505050565b60006040820190506128cf6000830185612382565b6128dc6020830184612418565b9392505050565b7f4e487b7100000000000000000000000000000000000000000000000000000000600052603260045260246000fd5b7f4d617820737570706c7920726561636865640000000000000000000000000000600082015250565b6000612948601283612246565b915061295382612912565b602082019050919050565b600060208201905081810360008301526129778161293b565b9050919050565b7f4e487b7100000000000000000000000000000000000000000000000000000000600052601160045260246000fd5b60006129b8826122ed565b91507fffffffffffffffffffffffffffffffffffffffffffffffffffffffffffffffff82036129ea576129e961297e565b5b600182019050919050565b600081519050919050565b600082825260208201905092915050565b6000612a1c826129f5565b612a268185612a00565b9350612a36818560208601612257565b612a3f81612281565b840191505092915050565b6000608082019050612a5f6000830187612382565b612a6c6020830186612382565b612a796040830185612418565b8181036060830152612a8b8184612a11565b905095945050505050565b600081519050612aa5816121ac565b92915050565b600060208284031215612ac157612ac0612176565b5b6000612acf84828501612a96565b91505092915050565b600081905092915050565b6000612aee8261223b565b612af88185612ad8565b9350612b08818560208601612257565b80840191505092915050565b6000612b208285612ae3565b9150612b2c8284612ae3565b91508190509392505050565b60008190508160005260206000209050919050565b60006020601f8301049050919050565b600082821b905092915050565b600060088302612b9a7fffffffffffffffffffffffffffffffffffffffffffffffffffffffffffffffff82612b5d565b612ba48683612b5d565b95508019841693508086168417925050509392505050565b6000819050919050565b6000612be1612bdc612bd7846122ed565b612bbc565b6122ed565b9050919050565b6000819050919050565b612bfb83612bc6565b612c0f612c0782612be8565b848454612b6a565b825550505050565b600090565b612c24612c17565b612c2f818484612bf2565b505050565b5b81811015612c5357612c48600082612c1c565b600181019050612c35565b5050565b601f821115612c9857612c6981612b38565b612c7284612b4d565b81016020851015612c81578190505b612c95612c8d85612b4d565b830182612c34565b50505b505050565b600082821c905092915050565b6000612cbb60001984600802612c9d565b1980831691505092915050565b6000612cd48383612caa565b9150826002028217905092915050565b612ced8261223b565b67ffffffffffffffff811115612d0657612d05612538565b5b612d108254612852565b612d1b828285612c57565b600060209050601f831160018114612d4e5760008415612d3c578287015190505b612d468582612cc8565b865550612dae565b601f198416612d5c86612b38565b60005b82811015612d8457848901518255600182019150602085019450602081019050612d5f565b86831015612da15784890151612d9d601f891682612caa565b8355505b6001600288020188555050505b505050505050565b6000612dc1826122ed565b9150612dcc836122ed565b9250828203905081811115612de457612de361297e565b5b92915050565b7f4e487b7100000000000000000000000000000000000000000000000000000000600052603160045260246000fd5b7f4e487b7100000000000000000000000000000000000000000000000000000000600052601260045260246000fdfea2646970667358221220e0aded0605922344b6ba7bb69998052687a9463a00d71c0f3d49b328f81aae8364736f6c63430008140033",
    "linkReferences": {},
    "deployedLinkReferences": {}
}